{
  "_format": "hh-sol-artifact-1",
  "contractName": "CustomToken",
  "sourceName": "contracts/customToken.sol",
  "abi": [
    {
      "inputs": [
        {
          "internalType": "address",
          "name": "from",
          "type": "address"
        },
        {
          "internalType": "address",
          "name": "to",
          "type": "address"
        },
        {
          "internalType": "uint256",
          "name": "amount",
          "type": "uint256"
        }
      ],
      "name": "_transfer",
      "outputs": [],
      "stateMutability": "nonpayable",
      "type": "function"
    },
    {
      "inputs": [
        {
          "internalType": "address",
          "name": "",
          "type": "address"
        },
        {
          "internalType": "address",
          "name": "",
          "type": "address"
        }
      ],
      "name": "allowance",
      "outputs": [
        {
          "internalType": "uint256",
          "name": "",
          "type": "uint256"
        }
      ],
      "stateMutability": "view",
      "type": "function"
    },
    {
      "inputs": [
        {
          "internalType": "address",
          "name": "",
          "type": "address"
        }
      ],
      "name": "balanceOf",
      "outputs": [
        {
          "internalType": "uint256",
          "name": "",
          "type": "uint256"
        }
      ],
      "stateMutability": "view",
      "type": "function"
    }
  ],
  "bytecode": "0x608060405234801561001057600080fd5b50610457806100206000396000f3fe608060405234801561001057600080fd5b50600436106100415760003560e01c806330e0789e1461004657806370a0823114610062578063dd62ed3e14610092575b600080fd5b610060600480360381019061005b919061027e565b6100c2565b005b61007c600480360381019061007791906102d1565b6101a8565b604051610089919061030d565b60405180910390f35b6100ac60048036038101906100a79190610328565b6101c0565b6040516100b9919061030d565b60405180910390f35b806000808573ffffffffffffffffffffffffffffffffffffffff1673ffffffffffffffffffffffffffffffffffffffff1681526020019081526020016000205461010c9190610397565b6000808573ffffffffffffffffffffffffffffffffffffffff1673ffffffffffffffffffffffffffffffffffffffff16815260200190815260200160002081905550806000808473ffffffffffffffffffffffffffffffffffffffff1673ffffffffffffffffffffffffffffffffffffffff168152602001908152602001600020600082825461019c91906103cb565b92505081905550505050565b60006020528060005260406000206000915090505481565b6001602052816000526040600020602052806000526040600020600091509150505481565b600080fd5b600073ffffffffffffffffffffffffffffffffffffffff82169050919050565b6000610215826101ea565b9050919050565b6102258161020a565b811461023057600080fd5b50565b6000813590506102428161021c565b92915050565b6000819050919050565b61025b81610248565b811461026657600080fd5b50565b60008135905061027881610252565b92915050565b600080600060608486031215610297576102966101e5565b5b60006102a586828701610233565b93505060206102b686828701610233565b92505060406102c786828701610269565b9150509250925092565b6000602082840312156102e7576102e66101e5565b5b60006102f584828501610233565b91505092915050565b61030781610248565b82525050565b600060208201905061032260008301846102fe565b92915050565b6000806040838503121561033f5761033e6101e5565b5b600061034d85828601610233565b925050602061035e85828601610233565b9150509250929050565b7f4e487b7100000000000000000000000000000000000000000000000000000000600052601160045260246000fd5b60006103a282610248565b91506103ad83610248565b9250828210156103c0576103bf610368565b5b828203905092915050565b60006103d682610248565b91506103e183610248565b9250827fffffffffffffffffffffffffffffffffffffffffffffffffffffffffffffffff0382111561041657610415610368565b5b82820190509291505056fea2646970667358221220fbbfe495fc0de077df17f3f4ebd5ebd70820c4e2755e9c8bd800f8f65776251564736f6c63430008080033",
  "linkReferences": {},
  "deployedLinkReferences": {}
}